:020000040800F2
:1000000078050020490100087B2E00080D29000812
:10001000792E0008B50100082D3700080000000007
:10002000000000000000000000000000A92E0008F1
:100030002102000800000000812E0008AB2E0008FD
:100040006301000863010008630100086301000800
:100050006301000863010008230200082902000868
:100060002F02000835020008630100086301000840
:1000700063010008630100086301000863010008D0
:1000800063010008630100086301000863010008C0
:1000900063010008630100086301000863010008B0
:1000A00063010008630100086301000863010008A0
:1000B0006301000863010008630100086301000890
:1000C0006301000863010008630100086301000880
:1000D000630100082137000863010008630100087C
:1000E0006301000863010008630100086301000860
:1000F0006301000863010008630100086301000850
:10010000630100086301000863010008630100083F
:100110006301000863010008292F0008630100083B
:10012000630100086301000863010008630100081F
:10013000DFF810D000F02CF800480047BD37000869
:10014000AFF3008078050020064880470648004746
:10015000FEE7FEE7FEE7FEE7FEE7FEE7FEE7FEE777
:10016000FEE7FEE70F2F000831010008D2B201E0E0
:1001700000F8012B491EFBD270470022F6E710B5AC
:1001800013460A4604461946FFF7F0FF204610BD05
:10019000064C074D06E0E06840F0010394E80700D4
:1001A00098471034AC42F6D3FFF7C6FF203800085A
:1001B00040380008FEE7000010B50021034802F0B7
:1001C00083F803490220087010BD000028000020B9
:1001D0001300002010B50021034801F0BFFF0349C0
:1001E0000120087010BD000028000020130000202E
:1001F000094910B5B1FBF0F293B2084A1468E36202
:10020000B1FBF0F3B1FBF0F09BB2D3601168C0F327
:100210004F00486310BD000040420F00280000203E
:100220007047012000F010B9022000F00DB9042041
:1002300000F00AB9082000F007B972B6FEE710B561
:1002400090F821100022022905D00421816380F852
:100250002020012010BD01680B6823F00E030B6005
:1002600001680B6823F001030B6090F84030C46B09
:10027000012101FA03F3636080F8211080F8202047
:10028000104610BD2DE9F05F90F8211000240229DE
:1002900003D004218163012485E001680A6822F00B
:1002A0000E020A6001680A6822F001020A603F4EED
:1002B0003E4FB215DFF8F4C0DFF8F090DFF8ECA0A5
:1002C000DFF8E8B0DFF8E4E00168783F13011502D9
:1002D000ACF1640CA9F15009AAF13C0AABF1280B6E
:1002E000AEF1140E4FF48018B14227D9B9420ED0A6
:1002F000614512D049451DD0514518D0594518D0F7
:10030000714501D1424615E0294EB14201D1012289
:1003100010E0274E1436B14201D110220AE0244EDB
:100320002836B14206D0224A3C32914201D11A46C7
:1003300000E02A461E49091F0A602BE0B94213D08B
:10034000614517D0494522D051451DD059451DD092
:10035000714501D142461AE0B14202D14FF080729C
:1003600015E0134EB14201D1012210E0104E1436B7
:10037000B14201D110220AE00D4E2836B14206D01A
:100380000B4A3C32914201D11A4600E02A46074905
:1003900080394A60012180F82110002180F8201066
:1003A000416B01B188472046BDE8F09F80000240C4
:1003B0000804024070B5044600F08AFA0546601C45
:1003C00002D004480078044400F082FA401BA042A6
:1003D000FAD370BD140000200121012808D00228A2
:1003E00008D0042808D0082808D006A003F0A0B937
:1003F000114804E0114802E0114800E01148017082
:1004000070470000B4EDCEF3202D20CDE2B2BFD670
:10041000D0B6CFBBD8B5F7BAAFCAFDD6D0A3ACB46F
:10042000A5C3FEB0B4BCFCBCFCD6B5B4EDCEF3A302
:10043000A10D0A0D0A00000006000020090000209E
:100440000C0000200F000020044910B50A68024289
:1004500002D00860FFF7C0FF10BD00001404014087
:100460002DE9F84F0027DFF8BCA2DFF8BCB20D463B
:100470000446B946504514D05C4512D0AB4884427E
:100480000FD0AB4884420CD0AA48844209D0AA4875
:10049000844206D0A948844203D0BD21A8A003F01D
:1004A0007FF928680104090C01D0000C03D0BE219B
:1004B000A3A003F075F9686800281FD00128FCD0BC
:1004C0001128FAD00228F8D01228F6D0AB49884279
:1004D000F3D0AB498842F0D0AA498842EDD0AA496E
:1004E0008842EAD0A9498842E7D0A9498842E4D0A5
:1004F0000328E2D0BF2192A003F052F90BE10120C2
:1005000000FA07F801EA0806464574D1544514D0AC
:100510005C4512D0854884420FD0854884420CD077
:100520008448844209D08448844206D08348844267
:1005300003D0CD2182A003F033F9904869680A1AEC
:10054000814259D00EDC032975D006DC002953D036
:10055000012919D0022969D131E0112921D01229AC
:1005600064D13AE0B2F5881F46D006DCB2F5803F90
:1005700042D0B2F5801F59D13EE0B2F5001F3BD00A
:10058000B2F5041F52D137E0E868022807D00128ED
:1005900005D0032803D0D52169A003F001F9E8684C
:1005A0003EE0E868022807D0012805D0032803D0E0
:1005B000DC2163A003F0F4F8E868001D30E0E8688F
:1005C000022807D0012805D0032803D0E3215CA02E
:1005D00003F0E6F8E868083022E0E868022807D06F
:1005E000012805D0032803D0EA2155A003F0D8F84C
:1005F000E8680C3014E08DE0A86880B1012811D0C3
:10060000022807D0F7214EA003F0CAF8A86830B13D
:10061000012807D04FF00809C4F8148006E0042030
:10062000814603E04FF00809C4F81080FF2E05D87A
:10063000224605E0FFE74FF00000F1E704F1040275
:100640004FEA870001D9A0F1200013684FF00F0195
:1006500001FA00FC23EA0C0309FA00FC43EA0C034C
:1006600013606868C00055D54A48826942F00102AB
:100670008261806927F0030200F001000090464883
:1006800013189868BA07120F91408843544501D156
:10069000002118E05C4501D1012114E023498C427E
:1006A00001D102210FE022498C4201D103210AE04D
:1006B00020498C4201D1042105E01F498C4201D11F
:1006C000052100E006219140014399606868C0035C
:1006D0003248016801D5314300E0B14301606868E8
:1006E00080032F48016801D5314300E0B143016028
:1006F0006868C0022B48016801D5314300E0B1436E
:100700000160686880022848016801D5314300E033
:10071000B14301607F1C2E683146FE407FF4EFAE8E
:10072000BDE8F88F00080140000C014000100140B6
:100730000014014000180140001C0140002001404D
:100740002E2E2F447269766572732F53544D3332B7
:10075000463178785F48414C5F4472697665722F04
:100760005372632F73746D3332663178785F6861CA
:100770006C5F6770696F2E6300000000000011104D
:1007800000002110000031100000121000002210A3
:10079000000032100010024000000140000401403F
:1007A00004040140080401400C04014070B50C0031
:1007B000054604D14FF4DA7103A002F0F1FFA868F6
:1007C000204000D0012070BD2E2E2F447269766526
:1007D00072732F53544D3332463178785F48414C11
:1007E0005F4472697665722F5372632F73746D3331
:1007F00032663178785F68616C5F6770696F2E630D
:100800000000000070B50C00054604D14FF4F671ED
:1008100005A002F0C5FFE96824EA0100214040EA92
:100820000140286170BD00002E2E2F44726976654C
:1008300072732F53544D3332463178785F48414CB0
:100840005F4472697665722F5372632F73746D33D0
:1008500032663178785F68616C5F6770696F2E63AC
:100860000000000070B515460C00064604D14FF498
:10087000EA7108A002F094FF45B1012D04D040F2C6
:10088000D51104A002F08CFF346170BD20043061EA
:1008900070BD00002E2E2F447269766572732F533F
:1008A000544D3332463178785F48414C5F44726929
:1008B0007665722F5372632F73746D33326631789D
:1008C000785F68616C5F6770696F2E63000000007D
:1008D00001488068704700001400002002488168C9
:1008E000027811448160704714000020074810B559
:1008F000016841F010010160032000F0CDF80020F4
:1009000000F006F800F024F8002010BD002002409E
:1009100070B50D4D04464FF47A712878B1FBF0F0B4
:100920000A490968B1FBF0F000F0BDFC48B9102C91
:1009300007D200222146501E00F05EF800206C60B5
:1009400070BD012070BD00001400002020000020B8
:100950000E4808B5816941F001018161816901F0AA
:1009600001010091C16941F08051C161C06900F08D
:1009700080500090052000F08FF80548416821F074
:10098000E06141F00071416008BD000000100240CC
:100990000000014010B5040003D5BE2107A002F0FD
:1009A000FFFE002C09DB04F01F01012088406109D3
:1009B000890001F1E021C1F8000110BD2E2E2F4465
:1009C0007269766572732F53544D3332463178789D
:1009D0005F48414C5F4472697665722F5372632F92
:1009E00073746D3332663178785F68616C5F636F02
:1009F000727465782E63000070B515460C46064685
:100A0000102A03D3AA2114A002F0CAFE102C03D38B
:100A1000AB2111A002F0C4FE1E480068C0F30223FF
:100A2000C3F107022046042A00D90422191D072910
:100A300001D2002300E0DB1E012404FA02F1491E6A
:100A4000014099409C40641E2C4021433046BDE843
:100A5000704002F075BE00002E2E2F44726976653C
:100A600072732F53544D3332463178785F48414C7E
:100A70005F4472697665722F5372632F73746D339E
:100A800032663178785F68616C5F636F7274657825
:100A90002E6300000CED00E010B5044607280BD0D3
:100AA000062C09D0052C07D0042C05D0032C03D02C
:100AB000922108A002F074FE154904F007020868AC
:100AC0004FF6FF03184040EA0220124A1043086024
:100AD00010BD00002E2E2F447269766572732F535D
:100AE000544D3332463178785F48414C5F447269E7
:100AF0007665722F5372632F73746D33326631785B
:100B0000785F68616C5F636F727465782E63000054
:100B10000CED00E00000FA05704700002DE9F047F9
:100B20000F46050078D02868C1070AD1810708D48C
:100B3000410706D4000704D44FF44E716FA002F0B1
:100B40002FFE47B1012F06D0022F04D040F23931D9
:100B50006AA002F025FE774E306800F00700B84228
:100B600009D2306820F0070038433060306800F068
:100B70000700B84277D128686F4C810729D5400714
:100B800003D5606840F4E06060602878000703D512
:100B9000606840F460506060A868A0B1802812D0FE
:100BA000902810D0A0280ED0B0280CD0C0280AD091
:100BB000D02808D0E02806D0F02804D040F25F31D9
:100BC0004EA002F0EDFD6068A96820F0F000084337
:100BD00060602878C00737D0686868B101281CD0E9
:100BE00002281DD040F2663144A002F0D9FD6868A9
:100BF000012812D0022813D020688007002832DA9A
:100C00006068696820F0030008436060FFF760FED9
:100C1000804641F2883910E025E020688003EDE746
:100C200020688001EAE700BFFFF752FEA0EB080151
:100C3000494502D90320BDE8F0876068696800F083
:100C40000C00B0EB810FEFD1306800F00700B84224
:100C50000BD9306820F0070038433060306800F06E
:100C60000700B84201D00120E5E728784FF48066FC
:100C700040074FF4A0674FF4C0684FF4E06914D503
:100C8000E86860B1B0420AD0B84208D0404506D00A
:100C9000484504D04FF4697118A002F081FD6068E6
:100CA000E96820F4E060084360602878000715D503
:100CB000286960B1B0420AD0B84208D0404506D099
:100CC000484504D040F2AB310CA002F069FD6068E9
:100CD000296920F4605040EAC100606000F05AF8D1
:100CE0006168164AC1F30311515CC8401449086099
:100CF00014480068FFF70CFE00209CE72E2E2F44BE
:100D00007269766572732F53544D33324631787859
:100D10005F48414C5F4472697665722F5372632F4E
:100D200073746D3332663178785F68616C5F7263BB
:100D3000632E6300002002400010024008380008C3
:100D4000200000201800002001490120C8647047DD
:100D5000000042420448054900684968044AC1F35A
:100D60000221515CC8407047200000200010024062
:100D7000183800080448054900684968044AC1F366
:100D8000C221515CC8407047200000200010024082
:100D90001838000812A185B00FC98DE80F0014A003
:100DA000144A006804905168134801F00C03042BA6
:100DB00010D0082B0ED1C1F38343C9031DF80300E3
:100DC0000AD5516804AAC1F34041515C0A4A504314
:100DD000B0FBF1F005B0704708494843FAE700005E
:100DE00002030405060708090A0B0C0D0E0F10106C
:100DF000010200000010024000127A0000093D00CC
:100E000010B5044CA068000603D5FFF785FE8020CE
:100E1000A07210BD001002402DE9F84F04007DD0F3
:100E2000FA4EFB4D20684FF0010A4FF000084FF4D6
:100E3000803960B1C1070DD1810762D401076ED43A
:100E400040076DD440F26711F2A002F0A9FC2078AF
:100E5000C00753D060684FF4A02740B1484506D082
:100E6000B84204D040F26D11EAA002F099FC686823
:100E7000C0F38100012807D06868C0F38100022810
:100E800009D16868C00306D52868800336D5606834
:100E90000028C4D032E06068484503D1286840F497
:100EA000803009E008B1B8420DD0286820F48030C5
:100EB0002860286820F480202860606888B1FFF7E7
:100EC00007FD074609E0286840F480202860E5E730
:100ED000FFF7FEFCC01B642877D828688003F7D58D
:100EE0000CE0FFF7F5FC074605E000BFFFF7F0FC5C
:100EF000C01B6428F0D828688003F7D420788007C6
:100F00004ED5206930B1012804D040F2A111C1A012
:100F100002F046FC60691F2808D902E096E042E032
:100F20007BE04FF4D171BBA002F03AFC686810F08E
:100F30000C0F07D06868C0F38100022809D16868E7
:100F4000C00306D42868800714D5206901287DD104
:100F500010E02069B0B1C6F800A0FFF7B9FC074661
:100F600005E000BFFFF7B4FCC01B0228B4D8286816
:100F70008007F7D52868616920F0F80040EAC100D1
:100F800028600DE0C6F80080FFF7A2FC074604E0E9
:100F9000FFF79EFCC01B02289ED828688007F7D464
:100FA0002078000736D5A94FA06920B3012806D0C4
:100FB0004FF4F17197A002F0F3FBA069D8B1C7F824
:100FC00000A0FFF785FC074605E054E1FFF780FC31
:100FD000C01B02288ED8686A8007F7D59C484FF45A
:100FE000FA510068B0FBF1F0009000BF0098411E7C
:100FF0000091FAD20EE0C7F80080FFF769FC0746BF
:1010000005E000BFFFF764FCC01B0228AED8686A89
:101010008007F7D4207840076ED5E068002740B1FC
:10102000012806D0052804D040F2112179A002F051
:10103000B7FBE869C00008D4E86940F08050E86177
:10104000E869012700F08050009000E027E1814826
:101050000168C90512D4016841F480710160FFF78D
:1010600037FC834606E000BFFFF732FCA0EB0B0025
:10107000642891D877480068C005F5D5E068012854
:101080000AD008B1052811D0286A20F00100286292
:10109000286A20F0040002E0286A40F0010028627B
:1010A000E068A8B1FFF714FC83460DE0286A40F021
:1010B00004002862F0E700BFFFF70AFCA0EB0B0179
:1010C00041F28830814285D8286A8007F4D50EE045
:1010D000FFF7FEFB834607E0FFF7FAFBA0EB0B01EF
:1010E00041F28830814291D8286A8007F4D41FB138
:1010F000E86920F08050E861E06900287ED001288E
:1011000009D0022807D040F2AF2142A002F048FBEC
:10111000E069002872D06868C0F381000228E069A5
:101120006DD0022805D0C6F86080FFF7D1FB0446D9
:10113000A4E0206A30B1484504D04FF42E7135A0A8
:1011400002F02EFB606A70B3B0F5802F2BD0B0F5A3
:10115000002F28D0B0F5402F25D0B0F5801F22D029
:10116000B0F5A01F1FD0B0F5C01F1CD0B0F5E01F18
:1011700019D0B0F5001F16D0B0F5101F13D0B0F580
:10118000201F10D0B0F5301F0DD0B0F5401F0AD091
:10119000B0F5501F07D0B0F5601F04D040F2B92160
:1011A0001CA002F0FDFAC6F86080FFF791FB07462D
:1011B00005E000BFFFF78CFBC01B02285BD8286846
:1011C0008001F7D4206A48450FD1A06838B1B0F546
:1011D000003F04D040F2CF210EA002F0E1FA68688F
:1011E000A16820F4003008436860D4E9080108438E
:1011F000696821F474110843686001E051E041E03E
:10120000C6F860A0FFF764FB04462AE000004242F3
:10121000001002402E2E2F447269766572732F5390
:10122000544D3332463178785F48414C5F4472699F
:101230007665722F5372632F73746D333266317813
:10124000785F68616C5F7263632E63008004424262
:101250002000002000700040FFF73AFB001B02282E
:1012600009D828688001F7D51BE000BFFFF730FBE5
:10127000001B022802D90320BDE8F88F28688001EE
:10128000F4D40EE00128F7D06868226A00F48031B7
:10129000914204D1616A00F47010884201D00120AB
:1012A000EAE70020E8E710B5401EB0F1807F01D3E7
:1012B000012010BD4FF0E02460610F21601702F0A3
:1012C0003FFA0020A06107202061002010BD704778
:1012D0007047000070B50C46054600683E498842DC
:1012E00007D03E49884204D040F2C3713CA002F0CE
:1012F00057FA2068B0F5006F05D020B140F2C471F4
:1013000037A002F04DFA6068B0F5806F05D020B1CB
:1013100040F2C57132A002F043FAA06868B1B0F59E
:10132000807F0AD0B0F5007F07D0B0F5407F04D0B1
:1013300040F2C6712AA002F033FAE068FF2804D90F
:1013400040F2C77126A002F02BFA2069B0F5805F49
:1013500005D020B14FF4F96121A002F021FA6069B3
:1013600038B1B0F5005F04D040F2C9711CA002F0A2
:1013700017FAE069B0F5804F05D020B140F2CA718C
:1013800017A002F00DFA95F83C00012822D00120A8
:1013900085F83C00E068A26820F440701043626861
:1013A00020F480601043226820F40060104322691A
:1013B00020F480501043626920F400501043E26929
:1013C000002120F4804010432A68506485F83C10C6
:1013D000002070BD022070BD002C0140003401408F
:1013E0002E2E2F447269766572732F53544D33320B
:1013F000463178785F48414C5F4472697665722F58
:101400005372632F73746D3332663178785F68611D
:101410006C5F74696D5F65782E6300002DE9F05F85
:1014200004460068364E374FDFF8DC80DFF8DC908A
:10143000DFF8DCA00D464FF0804BB04214D0B8422C
:1014400012D0584510D040450ED048450CD05045DC
:101450000AD03049884207D02F49884204D040F250
:1014600086712EA002F09CF9286890B1102810D047
:1014700020280ED030280CD040280AD0502808D080
:10148000602806D0702804D040F2877123A002F0B3
:1014900087F96868802805D020B14FF4F1611FA05A
:1014A00002F07EF994F83C00012827D0012284F84C
:1014B0003C20022084F83D00216848688B6820F0B9
:1014C000700C286840EA0C0048602068B04209D0DF
:1014D000B84207D0584505D0404503D0484501D013
:1014E000504504D1696823F080031943816084F872
:1014F0003D20002084F83C00BDE8F09F0220FBE77F
:10150000002C01400034014000040040000800406D
:10151000000C004000100040001400402E2E2F440C
:101520007269766572732F53544D33324631787831
:101530005F48414C5F4472697665722F5372632F26
:1015400073746D3332663178785F68616C5F74698B
:101550006D5F65782E63000010B5040046D03649F3
:101560002068884219D03549884216D0B0F1804FA2
:1015700013D03349884210D0324988420DD03249C5
:1015800088420AD03149884207D03149884204D084
:1015900040F213112FA002F003F9A06860B11028E7
:1015A0000AD0202808D0402806D0602804D04FF464
:1015B0008A7128A002F0F4F8206950B1B0F5807F5C
:1015C00007D0B0F5007F04D040F2151121A002F041
:1015D000E7F8A06930B1802804D04FF48B711DA0CA
:1015E00002F0DEF894F83D0010B107E0012010BDD4
:1015F000002084F83C00204600F048F8022084F8DF
:101600003D00211D206801F095FC012084F8460072
:1016100084F83E0084F83F0084F8400084F84100DC
:1016200084F8420084F8430084F8440084F84500BC
:1016300084F83D00002010BD002C01400034014022
:101640000004004000080040000C00400010004072
:10165000001400402E2E2F447269766572732F534A
:10166000544D3332463178785F48414C5F4472695B
:101670007665722F5372632F73746D3332663178CF
:10168000785F68616C5F74696D2E630008B5174AF6
:1016900001681748914207D1816941F40061816175
:1016A000806900F400601EE0124A914211D1C169C4
:1016B00041F01001C161C069012200F010000090EA
:1016C00000213620FFF798F9BDE808403620FFF7E3
:1016D00061B9094A914207D1C16941F02001C16154
:1016E000C06900F02000009008BD0000002C0140FF
:1016F0000010024000100040001400402DE9F047A7
:1017000007460068204C214D214EDFF88880DFF825
:1017100088904FF0804AA04214D0A84212D0504581
:1017200010D0B0420ED040450CD048450AD01B49DD
:10173000884207D01A49884204D04FF4CA7119A0D0
:1017400002F02EF897F83D00012802D00120BDE8F4
:10175000F087022087F83D003868A04209D0A842EF
:1017600007D0504505D0B04203D0404501D0484590
:1017700004D1816801F00701062903D0016841F016
:10178000010101600020E2E7002C0140003401402B
:101790000004004000080040000C00400010004021
:1017A000001400402E2E2F447269766572732F53F9
:1017B000544D3332463178785F48414C5F4472690A
:1017C0007665722F5372632F73746D33326631787E
:1017D000785F68616C5F74696D2E63002DE9F04776
:1017E00007460068234C244D244EDFF89480DFF830
:1017F00094904FF0804AA04214D0A84212D0504595
:1018000010D0B0420ED040450CD048450AD01E49F9
:10181000884207D01D49884204D040F2CF111CA055
:1018200001F0BEFF97F83D00012802D00120BDE87D
:10183000F087022087F83D003868C16841F0010157
:10184000C1603868A04209D0A84207D0504505D0F1
:10185000B04203D0404501D0484504D1816801F031
:101860000701062903D0016841F001010160002051
:10187000DDE70000002C014000340140000400407E
:1018800000080040000C0040001000400014004020
:101890002E2E2F447269766572732F53544D333256
:1018A000463178785F48414C5F4472697665722FA3
:1018B0005372632F73746D3332663178785F686169
:1018C0006C5F74696D2E63002DE9F05F054690F83A
:1018D0003C000C4601283FD04FF0010B85F83CB08E
:1018E000022085F83D0020684FF480594FF4005ADB
:1018F000484515D0504513D090B1102810D020285D
:101900000ED030280CD040280AD0502808D06028AB
:1019100006D0702804D041F23241BAA001F040FF55
:101920002868816821F0770121F47F418160206877
:10193000C249C34AC34BC44EC44F4FF0804C4FF40E
:101940000048502872D00FDC202804D007DC002883
:10195000FBD0102850D140E10220BDE8F09F302894
:10196000F9D04028F6D109E160287CD070285ED0FB
:10197000484542D05045EDD1286888420ED090426B
:101980000CD060450AD0984208D0B04206D0B84288
:1019900004D041F25D419BA001F002FFA06858B164
:1019A000484509D0504507D0B0F5405F04D04FF40A
:1019B000A35194A001F0F4FE6068404509D040B105
:1019C000022806D00A2804D041F261418DA001F01E
:1019D000E7FEE0680F2804D941F2624189A001F0D6
:1019E000DFFED4E90121E368286801F045FB28689F
:1019F000816841F480418160BAE028688842FBD068
:101A00009042F9D06045F7D09842F5D0B042F3D07B
:101A1000B842F1D08E498842EED08E498842EBD050
:101A200041F23E4177A001F0BBFEA1E041E0286811
:101A300088420ED090420CD060450AD0984208D01F
:101A4000B04206D0B84204D041F245416DA001F049
:101A5000A7FEA06868B148450BD0504509D0B0F545
:101A6000405F06D000E053E041F2484165A001F03C
:101A700097FE6068404509D040B1022806D00A2888
:101A800004D041F249415FA001F08AFEE0680F28CE
:101A900004D941F24A415BA001F082FED4E9012160
:101AA000E368286801F0E8FA2868816841F0770166
:101AB000A1E7286888420ED090420CD060450AD039
:101AC000984208D0B04206D0B84204D041F27141E9
:101AD0004CA001F065FE6068404509D040B1022885
:101AE00006D00A2804D041F2744146A001F058FE05
:101AF000E0680F2804D941F2754142A001F050FE80
:101B0000E2686168286801F079FC502128682DE0BE
:101B1000286888420ED090420CD060450AD0984286
:101B200008D0B04206D0B84204D041F2814135A07D
:101B300001F036FE6068404509D040B1022806D069
:101B40000A2804D041F284412EA001F029FEE06869
:101B50000F2804D941F285412AA001F021FEE26854
:101B60006168286801F05BFC6021286801F08EFA4A
:101B700085F83DB0002085F83C00EEE628688842F4
:101B80000ED090420CD060450AD0984208D0B042A6
:101B900006D0B84204D041F291411AA001F000FEF3
:101BA0006068404509D040B1022806D00A2804D018
:101BB00041F2944113A001F0F3FDE0680F2804D92D
:101BC00041F295410FA001F0EBFDE26861682868E1
:101BD00001F014FC40212868C8E7286888420ED02C
:101BE00090420CD060450AD0984208D0B04206D04E
:101BF000B84204D041F2A44102A001F0D1FD216815
:101C00002868B3E72E2E2F447269766572732F53BE
:101C1000544D3332463178785F48414C5F447269A5
:101C20007665722F5372632F73746D333266317819
:101C3000785F68616C5F74696D2E6300002C0140F1
:101C4000003401400004004000080040000C004047
:101C50000010004000140040704770B50446006852
:101C600001694FF00005C943890715D4C168C9430C
:101C7000890711D4E91E016101202077206880695D
:101C80008007204602D0FFF7E7FF04E000F0BEF82F
:101C9000204600F062FA257720680169C9434907A8
:101CA00017D4C168C943490713D46FF00401016117
:101CB000022020772068806910F4407F204602D0FF
:101CC000FFF7CAFF04E000F0A1F8204600F045FA53
:101CD000257720680169C943090716D4C168C9433B
:101CE000090712D46FF008010161042020772068F1
:101CF000C0698007204602D0FFF7AEFF04E000F085
:101D000085F8204600F029FA257720680169C94343
:101D1000C90617D4C168C943C90613D46FF01001AE
:101D20000161082020772068C06910F4407F2046B8
:101D300002D0FFF791FF04E000F068F8204600F0C1
:101D40000CFA257720680169C943C90708D1C16821
:101D5000C943C90704D1891E0161204600F050FB28
:101D600020680169C943090609D4C168C943090645
:101D700005D46FF0800101612046FFF7A8FA2068C2
:101D80000169C943490609D4C168C943490605D454
:101D90006FF040010161204600F046FB20680169B8
:101DA000C94389060BD4C168C943890607D46FF0BB
:101DB000200101612046BDE87040FFF789BA70BD7F
:101DC00000B585B000210091019102910391006856
:101DD0000B49884212D10B48816941F004018161AD
:101DE0008069694600F0040004904FF48070009010
:101DF0000220019003900448FEF732FB05B000BDBD
:101E0000002C014000100240000801407047000013
:101E10002DE9F04116000D4604460CD0042E0AD0E0
:101E2000082E08D00C2E06D03C2E04D041F22701FB
:101E300069A001F0B5FC2868602806D0702804D09D
:101E400041F2280164A001F0ABFCA86830B102287F
:101E500004D041F2290160A001F0A2FC286930B150
:101E6000042804D041F22A015BA001F099FC94F807
:101E70003C00012812D001206549664A664B674F35
:101E8000DFF89CC184F83C004FF0804E4EB1042E28
:101E90002CD0082E51D00C2E4ED173E00220BDE87C
:101EA000F081206888420ED090420CD070450AD054
:101EB000984208D0B84206D0604504D041F23401BF
:101EC00045A001F06DFC2946206801F0E7F8206884
:101ED000816941F0080181612068816921F0040174
:101EE0008161206881692A69114324E02068884261
:101EF0000ED090420CD070450AD0984208D0B8421B
:101F000006D0604504D041F2450133A001F048FC01
:101F10002946206801F034F92068816941F40061A4
:101F200081612068816921F4806181612068816913
:101F30002A6941EA022181614AE0206888420ED084
:101F400090420CD070450AD0984208D0B84206D0D2
:101F5000604504D041F256011FA001F021FC294642
:101F6000206801F083F92068C16941F00801C1616E
:101F70002068C16921F00401C1612068C1692A6932
:101F8000114324E0206888420ED090420CD0704566
:101F90000AD0984208D0B84206D0604504D041F239
:101FA00067010DA001F0FCFB2946206801F0D4F97F
:101FB0002068C16941F40061C1612068C16921F4F0
:101FC0008061C1612068C1692A6941EA0221C16159
:101FD000002084F83C0062E72E2E2F44726976655B
:101FE00072732F53544D3332463178785F48414CE9
:101FF0005F4472697665722F5372632F73746D3309
:1020000032663178785F68616C5F74696D2E630049
:10201000002C014000340140000400400008004052
:10202000000C004010B5040046D0364920688842B4
:1020300019D03549884216D0B0F1804F13D03349BA
:10204000884210D0324988420DD0324988420AD0A5
:102050003149884207D03149884204D040F21351B7
:102060002FA001F09DFBA06860B110280AD02028A5
:1020700008D0402806D0602804D040F2145128A08F
:1020800001F08EFB206950B1B0F5807F07D0B0F52C
:10209000007F04D040F2155121A001F081FBA0691E
:1020A00030B1802804D040F216511DA001F078FB19
:1020B00094F83D0010B107E0012010BD002084F825
:1020C0003C00204600F048F8022084F83D00211D25
:1020D000206800F02FFF012084F8460084F83E00BD
:1020E00084F83F0084F8400084F8410084F84200FE
:1020F00084F8430084F8440084F8450084F83D00E7
:10210000002010BD002C01400034014000040040BC
:1021100000080040000C0040001000400014004087
:102120002E2E2F447269766572732F53544D3332BD
:10213000463178785F48414C5F4472697665722F0A
:102140005372632F73746D3332663178785F6861D0
:102150006C5F74696D2E6300704770472DE9F05F06
:1021600005460068DFF814810227DFF81491DFF8D4
:1021700014A1DFF814B1454E0C46404506D1DCB33E
:10218000042C44D0082C49D00C2C30D0B04206D1BD
:1021900094B3042C3BD0082C40D00C2C27D0B0F1A9
:1021A000804F13D0484506D134B3042C2FD0082CCF
:1021B00034D00C2C1BD0504506D1ECB1042C26D0C9
:1021C000082C2BD00C2C12D0584506D1A4B1042CCD
:1021D0001DD0082C22D00C2C09D040F299512CA0F3
:1021E00001F0DEFA44B1042C11D0082C16D095F879
:1021F0004100012819D000E002E00120BDE8F09F75
:1022000095F83E000128F6D185F83E700FE095F86C
:102210003F000128EFD185F83F7008E095F84000B5
:102220000128E8D185F8407001E085F8417001226D
:102230002146286800F0C4FE2868404501D0B0421D
:1022400003D1426C42F400424264286840450AD0FF
:10225000B04208D0B0F1804F05D0484503D050457A
:1022600001D0584504D1816801F00701062903D047
:10227000016841F0010101600020BFE7002C01402E
:102280000004004000080040000C00400034014001
:102290002E2E2F447269766572732F53544D33324C
:1022A000463178785F48414C5F4472697665722F99
:1022B0005372632F73746D3332663178785F68615F
:1022C0006C5F74696D2E63002DE9F041054600686E
:1022D000384E394F0C46B04206D1A4B3042C32D04C
:1022E000082C30D00C2C2ED0B84206D15CB3042C74
:1022F00029D0082C27D00C2C25D0B0F1804F16D037
:102300002E49884206D1F4B1042C1CD0082C1AD0D6
:102310000C2C18D02A49884206D1A4B1042C12D022
:10232000082C10D00C2C0ED02649884206D154B16E
:10233000042C08D0082C06D00C2C04D040F2CD512F
:1023400021A001F02DFA00222146286800F038FE75
:1023500041F2111128688A10B04201D0B84209D167
:10236000036A0B4206D1036A134203D1436C23F480
:10237000004343642868036A0B4206D1016A114294
:1023800003D1016821F001010160012044B1042C56
:1023900009D0082C0AD085F841000020BDE8F08162
:1023A00085F83E00F9E785F83F00F6E785F840003C
:1023B000F3E70000002C014000340140000400401D
:1023C00000080040000C00402E2E2F4472697665F4
:1023D00072732F53544D3332463178785F48414CF5
:1023E0005F4472697665722F5372632F73746D3315
:1023F00032663178785F68616C5F74696D2E630056
:10240000074900680968884208D106480188491CC4
:1024100089B20180C82901D30021018070470000E2
:1024200070000020040000207047704770470000D3
:10243000F8B5026804461068D168536910F00F0FB0
:102440004FF0000553D003F0010601F490773743B5
:102450005FD0C20705D0CA0503D5226C42F0010245
:102460002264420705D5DA0703D0226C42F002024B
:102470002264820705D5DA0703D0226C42F00402F9
:102480002264020707D501F02002324303D0226CF8
:1024900042F008022264226C002A34D0800604D55F
:1024A000880602D5204600F0ECFF20684069216CC8
:1024B000C0F38010090700D430B3204600F0C9FFF4
:1024C0002068416949061BD5416921F040014161FD
:1024D000A06BA8B158494163A06BFDF7D3FE00285B
:1024E00011D0A06B416B01B0BDE8F04008478306F6
:1024F0000FD58B060DD52046BDE8F84000F0C1BFD2
:102500002046FFF793FFF8BD2046FFF78FFF2564B5
:10251000F8BD266B2023012E52D1C60650D5CE061B
:102520004ED5106850680090506940062AD5A16BBE
:10253000086840680004000CEAD0A68D8642E7D9FE
:10254000E0858869202818D0D06820F48070D06099
:102550002068416921F0010141612068416921F051
:102560004001416184F83E3025632068C16821F054
:102570001001C160A06BFDF762FEA08DE18D401AD5
:1025800081B219E0A08DE18D401A81B2E08D002862
:10259000BED00029BCD0D06820F49070D0602068F4
:1025A000426922F00102426184F83E3025632068CE
:1025B000C26822F01002C2602046FFF736FFF8BD65
:1025C00005062BD50D0629D594F83D002128F6D116
:1025D000A068B0F5805F01D12069B0B1206A411CCC
:1025E0002162216800784860E08C401E0004000CE5
:1025F000E084E4D12068C16821F08001C1602068D6
:10260000C16841F04001C160F8BD206A0088C0F394
:1026100008005060206A801C2062E5E74006F3D580
:102620004806F1D5D168204621F04001D16084F8F8
:102630003D3000F06AF9F8BD4334000870B504007D
:1026400020D0A06933490028334A344B20681BD07E
:1026500088420AD0904208D0984206D04FF4B67112
:102660002FA001F09DF8A069F8B1A069B0F5807FB6
:102670001BD0B0F5007F18D0B0F5407F15D040F2E8
:102680006D110FE0012070BD88420ED090420CD039
:1026900098420AD03149884207D03149884204D053
:1026A00040F271111EA001F07BF8A06838B1B0F5BE
:1026B000805F04D040F2731119A001F071F894F812
:1026C0003D00002520B984F83C50204600F04AF82F
:1026D000242084F83D002068C16821F40051C160C5
:1026E000204600F029FF2068016921F49041016132
:1026F0002068416921F02A0141612068C16841F4E4
:102700000051C1602564202084F83D0084F83E001B
:10271000002070BD003801400044004000480040E7
:102720002E2E2F447269766572732F53544D3332B7
:10273000463178785F48414C5F4472697665722F04
:102740005372632F73746D3332663178785F6861CA
:102750006C5F756172742E6300000000004C0040D5
:102760000050004030B585B00024009401940294DC
:1027700003940068184988422CD11848816941F4B3
:1027800080418161816901F480410491816941F056
:10279000040181618069124D00F0040004904FF43F
:1027A00000700090022001900320039069462846A3
:1027B000FDF756FE2815CDE9000469462846029427
:1027C000FDF74EFE002211462520FEF715F92520C3
:1027D000FEF7E0F805B030BD0038014000100240BF
:1027E0000008014090F83E30202B0ED159B152B173
:1027F00090F83C30012B08D0012380F83C300023B6
:10280000036300F03FBF01207047022070470000C3
:1028100000680B49884211D10A480C490A4B0278DA
:1028200008781A54401C08700A2A02D1084901206D
:102830000870012203490748FFF7D4BF7047000022
:102840000038014000000020440100200200002068
:1028500001000020000100202DE9F843044690F813
:102860003D001F4616460D4620284CD1C5B1BEB1CD
:1028700094F83C00012846D0012084F83C004FF039
:102880000008C4F84080212084F83D00FEF720F8BD
:10289000A6848146E684A068B0F5805F03D004E09A
:1028A0000120BDE8F883206928B12E465FF00005BD
:1028B00084F83C800EE00026FAE78021204600F0F4
:1028C000FCFEA0B9AEB116F8010B21684860E08C9F
:1028D000401EE084E08C4B464FF000020097002839
:1028E000EBD14FF04001204600F0E7FE30B103206D
:1028F000D7E735F8020BC0F30800E6E7202084F89C
:102900003D000020CDE70220CBE77047FEE7000046
:102910002DE9F0411F4C00262078012838D10025F0
:1029200065700127DFF87080A7700A20FDF742FD6F
:1029300001214046FDF73AFF012807D0761CF6B288
:10294000C82EF2D36078012802D00FE06770A5701E
:1029500012A000F0EDFE4FF48370FDF749FCFDF787
:1029600039FCC820FDF726FDFDF726FCA0780128DC
:102970000BD110A000F0DCFE012000F027F9C820E8
:10298000FDF718FD012000F021F925706570A57094
:10299000BDE8F0810600002000180140BCECB2E266
:1029A000B5BDB4A5C3FEB0B4BCFC31B5A5BBF70D35
:1029B0000A000000BCECB2E2B5BDB4A5C3FEB0B4E1
:1029C000BCFC31B3A4B0B40D0A0000002DE9F04105
:1029D0001B4C00262078012830D100256570012786
:1029E000DFF86080A7700A20FDF7E4FC0221404672
:1029F000FDF7DCFE012807D0761CF6B2C82EF2D314
:102A00006078012802D007E06770A5700EA000F082
:102A10008FFE022000F0DAF8A07801280BD110A078
:102A200000F086FE022000F0D1F8C820FDF7C2FCBD
:102A3000022000F0CBF825706570A570BDE8F0812C
:102A40000900002000180140BCECB2E2B5BDB4A5FD
:102A5000C3FEB0B4BCFC32B5A5BBF70D0A00000044
:102A6000BCECB2E2B5BDB4A5C3FEB0B4BCFC32B39D
:102A7000A4B0B40D0A0000002DE9F0411B4C002663
:102A80002078012830D1002565700127DFF86080AB
:102A9000A7700A20FDF78EFC04214046FDF786FE54
:102AA000012807D0761CF6B2C82EF2D36078012830
:102AB00002D007E06770A5700EA000F039FE032079
:102AC00000F084F8A07801280BD110A000F030FEAF
:102AD000032000F07BF8C820FDF76CFC032000F019
:102AE00075F825706570A570BDE8F0810C000020B8
:102AF00000180140BCECB2E2B5BDB4A5C3FEB0B451
:102B0000BCFC33B5A5BBF70D0A000000BCECB2E27B
:102B1000B5BDB4A5C3FEB0B4BCFC33B3A4B0B40D12
:102B20000A0000002DE9F0411A4C00262078012807
:102B30002DD1002565700127DFF85C80A7700A2081
:102B4000FDF738FC08214046FDF730FE012807D08C
:102B5000761CF6B2C82EF2D36078012802D006E0C7
:102B60006770A5700DA000F0E3FD00F08BF9A07870
:102B7000012809D10FA000F0DBFD00F083F9C82087
:102B8000FDF718FC00F07EF925706570A570BDE8B2
:102B9000F08100000F00002000180140BCECB2E200
:102BA000B5BDB4A5C3FEB0B4BCFC34B5A5BBF70D30
:102BB0000A000000BCECB2E2B5BDB4A5C3FEB0B4DF
:102BC000BCFC34B3A4B0B40D0A000000084A0128CC
:102BD00005D0022805D0032805D000F099B91021AE
:102BE00002E0202100E040211046FDF70BBE00006E
:102BF000001801402DE9F04385B0002435480094C9
:102C0000019402940394816941F0400181618169DA
:102C100001F040010491816941F004018161816901
:102C200001F004010491816941F48071816180693E
:102C3000DFF8A48000F480700490002270214046E8
:102C4000FDF710FEDFF894904FF40057002239464C
:102C50004846FDF707FE0F2000902148CDE901040A
:102C600069464046FDF7FCFB702001250226CDE9B0
:102C70000005CDE9024669464046FDF7F1FB0097A5
:102C80000396CDE9015469464846FDF7E9FB002269
:102C900001210620FDF7B0FE0620FDF77BFE012294
:102CA00011460720FDF7A8FE0720FDF773FE02225C
:102CB00001210820FDF7A0FE0820FDF76BFE03228E
:102CC00001210920FDF798FE0920FDF763FE05B0FC
:102CD000BDE8F083001002400018014000200140D0
:102CE0000000211010B596B000240F941094119498
:102CF000129413941C2108A81494FDF73EFA202185
:102D00006846FDF73AFA2948274901604721C0E99A
:102D100001146421C0E903148021C0E90541FEF7D4
:102D20001BFC08B1FDF789FA4FF480500F900FA9F2
:102D30001E48FEF7C9FD08B1FDF77FFA1B48FFF7F3
:102D400071F908B1FDF779FA139413A9174814948F
:102D5000FEF764FB08B1FDF770FA6020089032209E
:102D6000CDE909040B940C940D94002208A90F4896
:102D70000E94FFF74DF808B1FDF75FFA00944FF499
:102D80000050CDE904400294019403946946074839
:102D90000794FEF79FFA08B1FDF74FFA0348FFF7D3
:102DA0000FF816B010BD0000002C014028000020D4
:102DB0001CB500240F4800940D490194016047217F
:102DC000C0E9011441F28831C16080218161FEF7C0
:102DD000C3FB08B1FDF731FA009469460548019438
:102DE000FEF71CFB002801D0FDF727FA1CBD0000F0
:102DF00000100040700000201CB500240F48009413
:102E00000D49019401604721C0E901144FF6FF719B
:102E1000C16080218161FEF79FFB08B1FDF70DFACB
:102E20000094694605480194FEF7F8FA002801D09D
:102E3000FDF703FA1CBD000000140040B80000209C
:102E40000C4810B50A4901604FF4E131416000219E
:102E500081600C22C160C0E904128161C161FFF789
:102E6000EDFB002803D0BDE81040FDF7E6B910BD2A
:102E70000038014000010020FEE7FDF7C1FFFEE73A
:102E80007047000010B54FF400510548FDF7BAFC3B
:102E90000448017811B10021017010BD0121FBE748
:102EA00000200140120000207047FDF717BD30B52B
:102EB0008FB028216846FDF760F914210AA8FDF7B4
:102EC0005CF901210804CDE90010002402940225D8
:102ED0000491CDE907504FF4E01009906846FDF7E2
:102EE0009BFF08B172B6FEE70F20CDE90A054FF44B
:102EF0008060CDE90C4002210AA80E94FDF70EFE79
:102F000008B172B6FEE7FDF71FFF0FB030BD704786
:102F1000704710B5FFF7FCFCFFF758FDFFF7ACFD5D
:102F2000BDE81040FFF7FEBD0148FEF796BE000069
:102F300070000020F0B502681C4B1D4D1D4E1E4F49
:102F40001E4C4FF0804C984209D0A04207D06045FB
:102F500005D0A84203D0B04201D0B84204D122F03B
:102F6000700E4A6842EA0E02984209D0A04207D089
:102F7000604505D0A84203D0B04201D0B84203D189
:102F800022F44075CA682A434D6922F080022A4320
:102F900002608A68C2620A688262984201D0A042D6
:102FA00001D10969016301214161F0BD002C01409B
:102FB0000004004000080040000C004000340140C4
:102FC00070B50446194816460D46844213D0184879
:102FD000844210D0B4F1804F0DD0164884420AD0FC
:102FE0001548844207D01548844204D041F609515F
:102FF00013A000F0D5FB65B1042D0AD0082D08D030
:103000000C2D06D03C2D04D041F60A510CA000F046
:10301000C7FB05F01F010120226A8840824322621B
:10302000206A8E403043206270BD0000002C0140B9
:10303000003401400004004000080040000C004043
:103040002E2E2F447269766572732F53544D33328E
:10305000463178785F48414C5F4472697665722FDB
:103060005372632F73746D3332663178785F6861A1
:103070006C5F74696D2E630010B5846842EA0322A8
:1030800024F47F440A432243826010BD826822F008
:1030900070020A4342F00701816070472DE9F04752
:1030A0000446006A0D4620F001002062206A67682D
:1030B000A169AE6821F07302296820F00200DFF8F0
:1030C00080900643DFF87CA041EA02084C4501D01D
:1030D00054450ED1E86830B1082804D041F64121AA
:1030E00019A000F05DFBE86826F00801084320F015
:1030F00004064C4501D0544519D1A869B0F5007FAC
:1031000005D020B141F64E210FA000F049FB6869BF
:10311000B0F5807F05D020B141F64F210AA000F024
:103120003FFB27F440716869AF6908430743676054
:10313000C4F81880686860632662BDE8F087000004
:10314000002C0140003401402E2E2F447269766518
:1031500072732F53544D3332463178785F48414C67
:103160005F4472697665722F5372632F73746D3387
:1031700032663178785F68616C5F74696D2E6300C8
:103180002DE9F0470446006A0D4620F01000206249
:10319000206A6768A1692A6821F4E64141EA0228A9
:1031A000A968DFF8889020F02000DFF884A040EACA
:1031B00001164C4501D054450FD1E86830B10828BC
:1031C00004D041F68C211BA000F0EAFAE96826F051
:1031D000800040EA011020F040064C4501D05445E3
:1031E0001BD1A869B0F5007F05D020B141F69A2126
:1031F00010A000F0D5FA6869B0F5807F05D020B145
:1032000041F69B210BA000F0CBFA696927F44060DE
:1032100040EA8100A96940EA81076760C4F8188024
:103220006868A0632662BDE8F0870000002C0140BA
:10323000003401402E2E2F447269766572732F532D
:10324000544D3332463178785F48414C5F4472695F
:103250007665722F5372632F73746D3332663178D3
:10326000785F68616C5F74696D2E63002DE9F047CB
:103270000446006A0D4620F480702062206A676868
:10328000E169DFF8949021F07302296820F400705E
:1032900041EA0208A968DFF884A040EA01264C450B
:1032A00001D054450FD1E86830B1082804D041F668
:1032B000D7211BA000F074FAE96826F4006040EA08
:1032C000012020F480664C4501D054451BD1A869EB
:1032D000B0F5007F05D020B141F6E42110A000F048
:1032E0005FFA6869B0F5807F05D020B141F6E5212D
:1032F0000BA000F055FA696927F4405040EA01102C
:10330000A96940EA01176760C4F81C806868E06337
:103310002662BDE8F0870000002C01400034014027
:103320002E2E2F447269766572732F53544D3332AB
:10333000463178785F48414C5F4472697665722FF8
:103340005372632F73746D3332663178785F6861BE
:103350006C5F74696D2E63002DE9F0410446006ACC
:103360000D4620F480502062206A6668E1692A6870
:1033700021F4E64141EA0228A96820F4005040EA1D
:1033800001370E48844202D00D4884420ED168694C
:10339000B0F5807F05D020B141F6233109A000F0BF
:1033A000FFF9696926F4804040EA81166660C4F836
:1033B0001C80686820642762BDE8F081002C014011
:1033C000003401402E2E2F447269766572732F539C
:1033D000544D3332463178785F48414C5F447269CE
:1033E0007665722F5372632F73746D333266317842
:1033F000785F68616C5F74696D2E630010B5036A55
:10340000046A24F001040462846924F0F00444EAAC
:10341000021423F00A020A438461026210BD10B54F
:10342000036A23F0100303628369046A23F4704380
:1034300043EA023224F0A00343EA011182610162EF
:1034400010BD10B5406A0021C185C184FEF7EEFFB2
:1034500010BD0168CA6822F49072CA6001684A69A6
:1034600022F001024A61016B012904D10168CA6896
:1034700022F01002CA60202180F83E100021016372
:10348000704708B590F83E10222901D0022008BDEF
:1034900082684FF480539A4201D1016921B1816A57
:1034A0009A421BD04AB10AE00268816A5268C2F3AC
:1034B00008020A80816A891C08E0026972B1026808
:1034C000526802F07F020A70816A491C8162C18DD4
:1034D000491E0904090CC18503D019E0026852682D
:1034E000F1E70168CA6822F02002CA600168CA6870
:1034F00022F48072CA6001684A6922F001024A61BE
:10350000202180F83E10016B012903D0FFF780F9DC
:10351000002008BD002101630168CA6822F0100282
:10352000CA6001680A68D20602D50A684968009133
:10353000818DFEF77AFFEBE770B50446406840499D
:10354000884204D940F653613EA000F029F9E068B2
:1035500038B1B0F5005F04D040F6546139A000F0F6
:103560001FF9206950B1B0F5806F07D0B0F5C06F7A
:1035700004D040F6556133A000F012F960694FF6AF
:10358000F371084200D120B940F656612DA000F039
:1035900007F920680169E26821F440511143016193
:1035A0002169A0680843616908432168CA6841F23B
:1035B0000C639A430243CA6020684169A26921F4FE
:1035C0004071114341612E492068884202D1FDF7C4
:1035D000D1FB01E0FDF7BEFB00EBC00101EB0012E7
:1035E000606864218000B2FBF0F3B3FBF1F36FF08D
:1035F00018067343B2FBF0F5B2FBF0F605EB83055A
:10360000322303EB0515B5FBF1F5B6FBF1F605F03A
:10361000F00505EB0615B2FBF0F6B2FBF0F0B0FBDF
:10362000F1F06FF01802504306EB800003EB00103E
:10363000B0FBF1F0216800F00F002844886070BDF5
:1036400020AA44002E2E2F447269766572732F5380
:10365000544D3332463178785F48414C5F4472694B
:103660007665722F5372632F73746D3332663178BF
:10367000785F68616C5F756172742E630000000092
:103680000038014081628285C285002101642222C6
:1036900080F83E2080F83C100168CA6842F48072CD
:1036A000CA6001684A6942F001024A610068C16863
:1036B00041F02001C160002070472DE9F04198469B
:1036C00017460E460446069D1DE0681C1BD02DB112
:1036D000FDF7FEF8A0EB0800A84214D92068C168E5
:1036E00021F4D071C1602068416921F0010141617C
:1036F000202084F83D0084F83E00002084F83C003F
:103700000320BDE8F0812068006836EA000004D09C
:103710000020B842D9D00020F3E70120F9E70000EB
:103720000148FEF785BE000000010020FEE7000012
:10373000014A024900F023B8A53700082400002000
:103740000907090E002804DB00F1E02080F80014CE
:10375000704700F00F0000F1E02080F8141D704762
:1037600002E008C8121F08C1002AFAD1704770474A
:10377000002001E001C1121F002AFBD170472DE992
:10378000F04116460F460446002503E03946B0478F
:10379000641C6D1C20780028F8D12846BDE8F08113
:1037A0007047000013B50A23012269460248FFF75B
:1037B00053F800981CBD000000010020FDF796F8AA
:1037C000FFF775FBFFF716FAFFF73AFBFFF7F0FA82
:1037D000FFF712FBFFF786FA012207490748FFF7B8
:1037E00001F80748FDF7FAFF0648FDF787FF00BF1D
:1037F000FFF78FFBFCE70000000000200001002025
:1038000070000020280000200000000000000000E0
:103810000102030406070809000000000102030476
:103820004038000800000020280000006037000831
:103830006838000828000020500500007037000894
:103840000000000000000000000000000000000078
:103850000000020201000000100000000000000053
:083860000024F4000000000048
:0400000508000131BD
:00000001FF
